{
  "_format": "hh-sol-artifact-1",
  "contractName": "PatientData",
  "sourceName": "contracts/PatientData.sol",
  "abi": [
    {
      "inputs": [
        {
          "internalType": "address",
          "name": "_patient",
          "type": "address"
        }
      ],
      "name": "getPatient",
      "outputs": [
        {
          "internalType": "string",
          "name": "",
          "type": "string"
        },
        {
          "internalType": "string",
          "name": "",
          "type": "string"
        },
        {
          "internalType": "string",
          "name": "",
          "type": "string"
        }
      ],
      "stateMutability": "view",
      "type": "function"
    },
    {
      "inputs": [
        {
          "internalType": "address",
          "name": "",
          "type": "address"
        }
      ],
      "name": "patients",
      "outputs": [
        {
          "internalType": "string",
          "name": "name",
          "type": "string"
        },
        {
          "internalType": "string",
          "name": "email",
          "type": "string"
        },
        {
          "internalType": "string",
          "name": "disease",
          "type": "string"
        }
      ],
      "stateMutability": "view",
      "type": "function"
    },
    {
      "inputs": [
        {
          "internalType": "string",
          "name": "_name",
          "type": "string"
        },
        {
          "internalType": "string",
          "name": "_email",
          "type": "string"
        },
        {
          "internalType": "string",
          "name": "_disease",
          "type": "string"
        }
      ],
      "name": "registerPatient",
      "outputs": [],
      "stateMutability": "payable",
      "type": "function"
    }
  ],
  "bytecode": "0x608060405234801561001057600080fd5b50610a85806100206000396000f3fe6080604052600436106100345760003560e01c80630869cfbc14610039578063b5368e2014610078578063be65437a146100b7575b600080fd5b34801561004557600080fd5b50610060600480360381019061005b91906106db565b6100d3565b60405161006f9392919061083a565b60405180910390f35b34801561008457600080fd5b5061009f600480360381019061009a91906106db565b610295565b6040516100ae9392919061083a565b60405180910390f35b6100d160048036038101906100cc9190610704565b6104ba565b005b60006020528060005260406000206000915090508060000180546100f690610997565b80601f016020809104026020016040519081016040528092919081815260200182805461012290610997565b801561016f5780601f106101445761010080835404028352916020019161016f565b820191906000526020600020905b81548152906001019060200180831161015257829003601f168201915b50505050509080600101805461018490610997565b80601f01602080910402602001604051908101604052809291908181526020018280546101b090610997565b80156101fd5780601f106101d2576101008083540402835291602001916101fd565b820191906000526020600020905b8154815290600101906020018083116101e057829003601f168201915b50505050509080600201805461021290610997565b80601f016020809104026020016040519081016040528092919081815260200182805461023e90610997565b801561028b5780601f106102605761010080835404028352916020019161028b565b820191906000526020600020905b81548152906001019060200180831161026e57829003601f168201915b5050505050905083565b606080606060008060008673ffffffffffffffffffffffffffffffffffffffff1673ffffffffffffffffffffffffffffffffffffffff1681526020019081526020016000206040518060600160405290816000820180546102f590610997565b80601f016020809104026020016040519081016040528092919081815260200182805461032190610997565b801561036e5780601f106103435761010080835404028352916020019161036e565b820191906000526020600020905b81548152906001019060200180831161035157829003601f168201915b5050505050815260200160018201805461038790610997565b80601f01602080910402602001604051908101604052809291908181526020018280546103b390610997565b80156104005780601f106103d557610100808354040283529160200191610400565b820191906000526020600020905b8154815290600101906020018083116103e357829003601f168201915b5050505050815260200160028201805461041990610997565b80601f016020809104026020016040519081016040528092919081815260200182805461044590610997565b80156104925780601f1061046757610100808354040283529160200191610492565b820191906000526020600020905b81548152906001019060200180831161047557829003601f168201915b5050505050815250509050806000015181602001518260400151935093509350509193909250565b662386f26fc100003414610503576040517f08c379a00000000000000000000000000000000000000000000000000000000081526004016104fa90610886565b60405180910390fd5b6040518060600160405280848152602001838152602001828152506000803373ffffffffffffffffffffffffffffffffffffffff1673ffffffffffffffffffffffffffffffffffffffff16815260200190815260200160002060008201518160000190805190602001906105789291906105bb565b5060208201518160010190805190602001906105959291906105bb565b5060408201518160020190805190602001906105b29291906105bb565b50905050505050565b8280546105c790610997565b90600052602060002090601f0160209004810192826105e95760008555610630565b82601f1061060257805160ff1916838001178555610630565b82800160010185558215610630579182015b8281111561062f578251825591602001919060010190610614565b5b50905061063d9190610641565b5090565b5b8082111561065a576000816000905550600101610642565b5090565b600061067161066c846108d7565b6108a6565b90508281526020810184848401111561068957600080fd5b610694848285610955565b509392505050565b6000813590506106ab81610a38565b92915050565b600082601f8301126106c257600080fd5b81356106d284826020860161065e565b91505092915050565b6000602082840312156106ed57600080fd5b60006106fb8482850161069c565b91505092915050565b60008060006060848603121561071957600080fd5b600084013567ffffffffffffffff81111561073357600080fd5b61073f868287016106b1565b935050602084013567ffffffffffffffff81111561075c57600080fd5b610768868287016106b1565b925050604084013567ffffffffffffffff81111561078557600080fd5b610791868287016106b1565b9150509250925092565b60006107a682610907565b6107b08185610912565b93506107c0818560208601610964565b6107c981610a27565b840191505092915050565b60006107e1602183610912565b91507f5472616e73616374696f6e206d75737420696e636c75646520302e303120455460008301527f48000000000000000000000000000000000000000000000000000000000000006020830152604082019050919050565b60006060820190508181036000830152610854818661079b565b90508181036020830152610868818561079b565b9050818103604083015261087c818461079b565b9050949350505050565b6000602082019050818103600083015261089f816107d4565b9050919050565b6000604051905081810181811067ffffffffffffffff821117156108cd576108cc6109f8565b5b8060405250919050565b600067ffffffffffffffff8211156108f2576108f16109f8565b5b601f19601f8301169050602081019050919050565b600081519050919050565b600082825260208201905092915050565b600061092e82610935565b9050919050565b600073ffffffffffffffffffffffffffffffffffffffff82169050919050565b82818337600083830152505050565b60005b83811015610982578082015181840152602081019050610967565b83811115610991576000848401525b50505050565b600060028204905060018216806109af57607f821691505b602082108114156109c3576109c26109c9565b5b50919050565b7f4e487b7100000000000000000000000000000000000000000000000000000000600052602260045260246000fd5b7f4e487b7100000000000000000000000000000000000000000000000000000000600052604160045260246000fd5b6000601f19601f8301169050919050565b610a4181610923565b8114610a4c57600080fd5b5056fea2646970667358221220b6d1f2b26dae2570b1a6c72945ee21756307df4ba0c7e21a119577f2a798d00c64736f6c63430008000033",
  "linkReferences": {},
  "deployedLinkReferences": {}
}